:100000000C9434000C9451000C9451000C94510049
:100010000C9451000C9451000C9451000C9451001C
:100020000C9451000C9451000C9451000C9451000C
:100030000C9451000C9451000C9451000C945100FC
:100040000C9451000C9451000C9451000C945100EC
:100050000C9451000C9451000C9451000C945100DC
:100060000C9451000C94510011241FBECFEFD8E026
:10007000DEBFCDBF11E0A0E0B1E0E4E5F3E002C0F7
:1000800005900D92A031B107D9F721E0A0E1B1E0D0
:1000900001C01D92A231B207E1F70E9437010C9412
:1000A000A8010C940000E4E0220F331F441F551FE9
:1000B000EA95D1F70E948601BA01A9014150510980
:1000C00061097109BB27A72F962F852F8093C50043
:1000D0004093C40088E18093C1008EE08093C20009
:1000E00008959091C00095FFFCCF8093C6000895BD
:1000F000FC019E2F981B961740F49091C00095FF2D
:10010000FCCF91919093C600F4CF0895E0E1F1E027
:100110009083818362E0CF010C947800EF92FF928C
:100120000F931F93CF93DF9300D000D01F92CDB7D2
:10013000DEB7009771F480E30F900F900F900F904F
:100140000F90DF91CF911F910F91FF90EF900C9442
:1001500071009E012F5F3F4F7901F9012AE030E0E5
:10016000B9010E945E01805D8193CB018F010E1960
:100170001F090097A9F70E0D1F1DE016F10631F0BB
:10018000F80182918F010E947100F7CF0F900F90BC
:100190000F900F900F90DF91CF911F910F91FF90D3
:1001A000EF900895EF92FF920F931F93CF93DF93F9
:1001B00000D000D01F92CDB7DEB78C0197FF07C0EB
:1001C0008DE20E94710011950195110902C0892BE1
:1001D00039F0CE0101967C01FC012AE030E00EC02E
:1001E00080E30F900F900F900F900F90DF91CF91C1
:1001F0001F910F91FF90EF900C947100C801B9010D
:100200000E947201805D81938B01CF018E199F093D
:10021000672BA1F78701080F191FE016F10631F0CF
:10022000F80182918F010E947100F7CF0F900F901B
:100230000F900F900F90DF91CF911F910F91FF9032
:10024000EF9008958091C00087FFFCCF8091C60099
:100250000895FC019E2F981B961740F49091C000C2
:1002600097FFFCCF9091C6009193F4CF08958FEF44
:1002700084B920E03BE440E050E060E074E284EFC9
:1002800090E00E945300CFEFC5B96FE080E091E0AD
:100290000E9478002FEF89E698E12150804090403D
:1002A000E1F700C0000015B82FEF89E698E1215072
:1002B00080409040E1F700C00000E6CFAA1BBB1BC6
:1002C00051E107C0AA1FBB1FA617B70710F0A61B56
:1002D000B70B881F991F5A95A9F780959095BC0177
:1002E000CD01089597FB072E16F4009407D077FDF3
:1002F00009D00E945E0107FC05D03EF490958195DF
:100300009F4F0895709561957F4F0895A1E21A2E31
:10031000AA1BBB1BFD010DC0AA1FBB1FEE1FFF1FA9
:10032000A217B307E407F50720F0A21BB30BE40BF9
:10033000F50B661F771F881F991F1A9469F7609540
:100340007095809590959B01AC01BD01CF010895FA
:04035000F894FFCF4F
:1003540048656C6C6F20576F726C64210A0D000045
:00000001FF
